{
  "_format": "hh-sol-artifact-1",
  "contractName": "Whitelist",
  "sourceName": "contracts/Whitelist.sol",
  "abi": [
    {
      "inputs": [
        {
          "internalType": "uint8",
          "name": "_maxWhitelistedAddresses",
          "type": "uint8"
        }
      ],
      "stateMutability": "nonpayable",
      "type": "constructor"
    },
    {
      "inputs": [],
      "name": "addAddressToWhitelist",
      "outputs": [],
      "stateMutability": "nonpayable",
      "type": "function"
    },
    {
      "inputs": [],
      "name": "getWhitelistedAddresses",
      "outputs": [
        {
          "internalType": "address[]",
          "name": "",
          "type": "address[]"
        }
      ],
      "stateMutability": "view",
      "type": "function"
    },
    {
      "inputs": [],
      "name": "maxWhitelistedAddresses",
      "outputs": [
        {
          "internalType": "uint8",
          "name": "",
          "type": "uint8"
        }
      ],
      "stateMutability": "view",
      "type": "function"
    },
    {
      "inputs": [],
      "name": "numAddressesWhitelisted",
      "outputs": [
        {
          "internalType": "uint8",
          "name": "",
          "type": "uint8"
        }
      ],
      "stateMutability": "view",
      "type": "function"
    },
    {
      "inputs": [
        {
          "internalType": "address",
          "name": "",
          "type": "address"
        }
      ],
      "name": "whitelistedAddresses",
      "outputs": [
        {
          "internalType": "bool",
          "name": "",
          "type": "bool"
        }
      ],
      "stateMutability": "view",
      "type": "function"
    },
    {
      "inputs": [
        {
          "internalType": "uint256",
          "name": "",
          "type": "uint256"
        }
      ],
      "name": "whitelistedAddressesList",
      "outputs": [
        {
          "internalType": "address",
          "name": "",
          "type": "address"
        }
      ],
      "stateMutability": "view",
      "type": "function"
    }
  ],
  "bytecode": "0x608060405234801561001057600080fd5b5060405161092538038061092583398181016040528101906100329190610090565b806000806101000a81548160ff021916908360ff160217905550506100bd565b600080fd5b600060ff82169050919050565b61006d81610057565b811461007857600080fd5b50565b60008151905061008a81610064565b92915050565b6000602082840312156100a6576100a5610052565b5b60006100b48482850161007b565b91505092915050565b610859806100cc6000396000f3fe608060405234801561001057600080fd5b50600436106100625760003560e01c806306c933d81461006757806331a72188146100975780634011d7cd146100b55780636d028027146100d35780638e7314d9146100f1578063ba22f97d146100fb575b600080fd5b610081600480360381019061007c9190610483565b61012b565b60405161008e91906104cb565b60405180910390f35b61009f61014b565b6040516100ac9190610502565b60405180910390f35b6100bd61015c565b6040516100ca9190610502565b60405180910390f35b6100db61016f565b6040516100e891906105db565b60405180910390f35b6100f96101fd565b005b61011560048036038101906101109190610633565b6103e1565b604051610122919061066f565b60405180910390f35b60016020528060005260406000206000915054906101000a900460ff1681565b60008054906101000a900460ff1681565b600260009054906101000a900460ff1681565b606060038054806020026020016040519081016040528092919081815260200182805480156101f357602002820191906000526020600020905b8160009054906101000a900473ffffffffffffffffffffffffffffffffffffffff1673ffffffffffffffffffffffffffffffffffffffff16815260200190600101908083116101a9575b5050505050905090565b600160003373ffffffffffffffffffffffffffffffffffffffff1673ffffffffffffffffffffffffffffffffffffffff16815260200190815260200160002060009054906101000a900460ff161561028a576040517f08c379a00000000000000000000000000000000000000000000000000000000081526004016102819061070d565b60405180910390fd5b60008054906101000a900460ff1660ff16600260009054906101000a900460ff1660ff16106102ee576040517f08c379a00000000000000000000000000000000000000000000000000000000081526004016102e59061079f565b60405180910390fd5b60018060003373ffffffffffffffffffffffffffffffffffffffff1673ffffffffffffffffffffffffffffffffffffffff16815260200190815260200160002060006101000a81548160ff0219169083151502179055506003339080600181540180825580915050600190039060005260206000200160009091909190916101000a81548173ffffffffffffffffffffffffffffffffffffffff021916908373ffffffffffffffffffffffffffffffffffffffff1602179055506001600260008282829054906101000a900460ff166103c791906107ee565b92506101000a81548160ff021916908360ff160217905550565b600381815481106103f157600080fd5b906000526020600020016000915054906101000a900473ffffffffffffffffffffffffffffffffffffffff1681565b600080fd5b600073ffffffffffffffffffffffffffffffffffffffff82169050919050565b600061045082610425565b9050919050565b61046081610445565b811461046b57600080fd5b50565b60008135905061047d81610457565b92915050565b60006020828403121561049957610498610420565b5b60006104a78482850161046e565b91505092915050565b60008115159050919050565b6104c5816104b0565b82525050565b60006020820190506104e060008301846104bc565b92915050565b600060ff82169050919050565b6104fc816104e6565b82525050565b600060208201905061051760008301846104f3565b92915050565b600081519050919050565b600082825260208201905092915050565b6000819050602082019050919050565b61055281610445565b82525050565b60006105648383610549565b60208301905092915050565b6000602082019050919050565b60006105888261051d565b6105928185610528565b935061059d83610539565b8060005b838110156105ce5781516105b58882610558565b97506105c083610570565b9250506001810190506105a1565b5085935050505092915050565b600060208201905081810360008301526105f5818461057d565b905092915050565b6000819050919050565b610610816105fd565b811461061b57600080fd5b50565b60008135905061062d81610607565b92915050565b60006020828403121561064957610648610420565b5b60006106578482850161061e565b91505092915050565b61066981610445565b82525050565b60006020820190506106846000830184610660565b92915050565b600082825260208201905092915050565b7f53656e6465722068617320616c7265616479206265656e2077686974656c697360008201527f7465640000000000000000000000000000000000000000000000000000000000602082015250565b60006106f760238361068a565b91506107028261069b565b604082019050919050565b60006020820190508181036000830152610726816106ea565b9050919050565b7f4d6f7265206164647265737365732063616e742062652061646465642c206c6960008201527f6d69742072656163686564000000000000000000000000000000000000000000602082015250565b6000610789602b8361068a565b91506107948261072d565b604082019050919050565b600060208201905081810360008301526107b88161077c565b9050919050565b7f4e487b7100000000000000000000000000000000000000000000000000000000600052601160045260246000fd5b60006107f9826104e6565b9150610804836104e6565b9250828201905060ff81111561081d5761081c6107bf565b5b9291505056fea26469706673582212202df1a4143e26ea20c5cce588c8cbb49ef02ae4bb2abe1da8dfcef0ca073d268264736f6c63430008180033",
  "linkReferences": {},
  "deployedLinkReferences": {}
}